:0C0000000C94E7000C9400000C9400002D
:10000C000C9400000C9400000C9400000C94000064
:10001C000C9400000C9400000C9417010C9400003C
:10002C000C9400000C9400000C9400000C94000044
:10003C000C9400000C9400000C9400000C94000034
:10004C000C9400000C940000005EBCE2613FDD8368
:10005C00C29C7E20A3FD1F419DC3217FFCA2401E9C
:10006C005F01E3BD3E6082DC237D9FC1421CFEA08C
:10007C00E1BF5D0380DE3C62BEE0025CDF81633D7C
:10008C007C22C09E1D43A1FF4618FAA427799BC56C
:10009C0084DA3866E5BB5907DB856739BAE406585C
:1000AC001947A5FB7826C49A653BD987045AB8E64C
:1000BC00A7F91B45C6987A24F8A6441A99C7257B3C
:1000CC003A6486D85B05E7B98CD2306EEDB3510F2C
:1000DC004E10F2AC2F7193CD114FADF3702ECC921C
:1000EC00D38D6F31B2EC0E50AFF1134DCE90722C0C
:1000FC006D33D18F0C52B0EE326C8ED0530DEFB1FC
:10010C00F0AE4C1291CF2D73CA947628ABF51749EB
:10011C000856B4EA6937D58B5709EBB536688AD4DB
:10012C0095CB2977F4AA4816E9B7550B88D6346ACB
:10013C002B7597C94A14F6A8742AC896154BA9F7BB
:10014C00B6E80A54D7896B351027E80364000A0017
:10015C000100001000011000010001FFFFFFFF0073
:10016C00009BD0E5E6E8EC2000C7E0EFE8F1FC00EE
:10017C00205257313939302E3200544D3230303410
:10018C000025325820253258202028253258202589
:10019C003258290020CEF8E8E1EAE02000D7F2E559
:1001AC00EDE8E5002532580030253158002532584D
:1001BC002000000008006001660101000500BE017E
:1001CC000000F894EE27ECBBF1E0FBBFEBBFE5BF02
:1001DC00F8E1F1BDE1BD8DE0A2E0BB27ED938A957E
:1001EC00E9F780E094E0A0E6ED930197E9F7E0EC05
:1001FC00F1E085919591009761F0A591B5910590ED
:10020C001590BF01F00105900D920197E1F7FB01EC
:10021C00F0CFEFE5EDBFE4E0EEBFC0E6D1E00C942B
:10022C004A010A921A92FA926A937A938A939A934F
:10023C00AA93BA93EA93FA93EFB7EA93E2EBE2BF8D
:10024C000E944304E0916801EF5FE0936801A09184
:10025C006901AF5FA0936901A150A43139F4E0E0CA
:10026C00E0936901EBB3A1E0EA27EBBBE991EFBFA7
:10027C00F991E991B991A9919991899179916991A2
:10028C00F9901990099018952C97E0E0EA87EB8784
:10029C0000E030E020E0E8BBE7BBE3E0EBBBEABB0F
:1002AC000E943C04E2EBE2BFEEE4ECBFE5E0E3BF0E
:1002BC00E1E0E9BF7894E1E0EA9385D20E942D0653
:1002CC000E943206A0916801A43138F00E946604A5
:1002DC003E2FE0E0E093680101C030E0323011F0D5
:1002EC000C94380230E00E942D06E5E7F1E0FA9319
:1002FC00EA9395D210E0143050F40E943806EA8745
:10030C00AA85AE3F11F414E021E01F5FF4CF213039
:10031C0069F5ECE7F1E00E94400610E0143018F4A7
:10032C0015D11F5FFBCFEEE10E94440681E18A9557
:10033C00F1F70CD1EDE1EA9399D1BC9AE1E0EA93A3
:10034C007AD1BC9885E18A95F1F70E943806EB8743
:10035C00FDD0E5EDEA938AD110E0183030F40E941C
:10036C004B06EA9350D11F5FF8CFF0D0223011F03A
:10037C000C942D02E6E8F1E00E944006E7D0E13053
:10038C0011F00C941302ECE3EA9370D1E0E0EA93E1
:10039C006DD1E0E0EA936AD110E01830C0F40E940D
:1003AC004B060E944406BC9AC49A88E592E00197D9
:1003BC00F1F7C4988DE08A95F1F7C49ABC98E2E302
:1003CC00F0E00E9451067DD1EB871F5FE6CF00E085
:1003DC00ECE3EA93EDB7FEB7FA93EA930F9336D2B8
:1003EC000F91E0E0EA93EDB7FEB7FA93EA930F931F
:1003FC002DD20F91E0E0EA93EDB7FEB7FA93EA93B2
:10040C000F9324D20F91E0916001EA93EDB7FEB700
:10041C00FA93EA930F931AD20F910E945506EDE8C6
:10042C00F1E00E945906EA890E946206E09160019F
:10043C000E946206EB8D0E94620680E10E94E2053A
:10044C0064960E942D060E945506DDD17FD0203087
:10045C0049F4E8E0EA93E0E0EA93EDD1E0EAF1E078
:10046C000E944006313011F00C94AA0230E00E9438
:10047C002D06E9EAF1E00E94400668D0E13011F067
:10048C000C94AA029CD1E3E3EA93F0D00E942D06CF
:10049C00E9EAF1E00E944006E0E0EA93E1E0EA9349
:1004AC00CAD100E010E01830A8F50E946806A0E060
:1004BC00A0830E946806FF93EF9303D1AF91BF9185
:1004CC00EC93173050F40E944B06EA93EDB7FEB74D
:1004DC00FA93EA930F93BAD10F910E946806A08108
:1004EC00A03128F00E945506E0EBF1E004C00E9418
:1004FC005506E4EBF1E0FA93EA930E944B060E9456
:10050C00620684E00E94E20528960E9455067BD183
:10051C001F5FC9CFEEE0EA93E0E0EA938CD10E9432
:10052C005506E9EBF1E00E94590684E00E94E205D1
:10053C0028960E94550667D1EBB3A2E0EA27EBBBE5
:10054C000E942D060E943206BDCEFFCF0E94E2060D
:10055C0010E000E030E08AEF90E00197F1F7BC9AF0
:10056C00C49884EF91E00197F1F7C49ABC9880E5A8
:10057C008A95F1F710E01C3300F581E08A95F1F7CC
:10058C00E6B3E095E071B9F031E000E0E12FF0E086
:10059C00A4EBB0E00E94D906EA1BFB0BA02FB0E045
:1005AC00AE17BF073CF481E08A95F1F7B49904EBE0
:1005BC000F5FECCF1CE31F5FDECF84EA91E0019765
:1005CC00F1F7E32F0E94E90624960895C498E88178
:1005DC00E03019F483E48A95F1F7A881A13019F47D
:1005EC008DE08A95F1F7C49AE881E03021F4E3E1DB
:1005FC00F0E00E945106A881A13021F4E3E1F0E083
:10060C000E945106FEC01A930A93BC9A00E008306F
:10061C0070F4EA81E1701E2F103011F0E1E001C09E
:10062C00E0E0EA93D3DF0E946D060F5FF0CFBC9839
:10063C001981088119C1C498E881E03019F487E563
:10064C008A95F1F7A881A13019F487E08A95F1F722
:10065C00C49AE881E03019F487E08A95F1F7A88113
:10066C00A13019F487E58A95F1F7CBC01A930A9358
:10067C00BC9A00E0083070F4EA81E1701E2F103053
:10068C0011F0E1E001C0E0E0EA93D5DF0E946D06D5
:10069C000F5FF0CFBC9819810881E6C01A9310E067
:1006AC00BC9AC49881E08A95F1F7C49ABC9883E10E
:1006BC008A95F1F7B49911E08CE38A95F1F70C94D3
:1006CC006C041A930A9310E000E0083058F4E12F00
:1006DC00F0E0F595E7951E2FE1DFE03009F01068AA
:1006EC000F5FF3CFE12F099119910895AA9AE88130
:1006FC00E078F0E00E94C5060E94C306309711F026
:10070C00AF9A01C0AF98E881E074F0E00E94C70690
:10071C000E94C306309711F0AE9A01C0AE98E881E2
:10072C00E072F0E0F595E7950E94C306309711F062
:10073C00AD9A01C0AD98E881E071F0E00E94C3066B
:10074C00309711F0AC9A01C0AC98AA98E1E0F0E0B7
:10075C000E945106AA9AE881E870F0E00E94C50652
:10076C00309711F0AF9A01C0AF98E881E470F0E0D7
:10077C000E94C706309711F0AE9A01C0AE98E8817E
:10078C00E270F0E0F595E795309711F0AD9A01C065
:10079C00AD98E881E17011F0AC9A01C0AC98AA98C0
:1007AC00E1E0F0E00E9451062CC0A898E881EA93A1
:1007BC009DDF27C0A89AE881EA9398DF22C0E1E088
:1007CC00EA93F3DF0895E7EFE4BBE4E1F0E00E9485
:1007DC005106E3E3EA93E9DFE2E3EA93E6DFE8813B
:1007EC00E03011F4E8E201C0EAE2EA93DEDFE8E08F
:1007FC00EA93DBDFE4DFE6E0EA93D7DFECE0EA93B1
:10080C00D4DF219608951A93A981BA81EC911E2FF9
:10081C00E03019F00E947606F7CF188125C01A93A4
:10082C00E981FA81E4911E2FE03019F00E947606DE
:10083C00F7CF188119C0E881A0E4EA02F001E05872
:10084C00A981EA0FEA93B1DF22960895A881B981B4
:10085C00AC91BB27EA81F0E0EA27FB27EC5AFF4F6B
:10086C00E491A881B981EC9323960895E7B3EC7FCA
:10087C00E7BBE8B3E360E8BB08951A93B09902C0F4
:10088C0011E00DC0B19902C012E009C0B69902C0C6
:10089C0013E005C0B49902C014E001C010E01030A0
:1008AC0069F0E5E0E51529F4EFE05E2E10936A019E
:1008BC000EC0EAE05E1608F4539401C0552407C03C
:1008CC001A9310916A01E0E0E0936A01E12F19910B
:1008DC0008951A930A93AA81BB8112960E94CC06A2
:1008EC00309759F1AA81BB8114960E94CC068F01D6
:1008FC00309761F00230E0E01E07F0F0F80131971C
:10090C008F01AA81BB811496ED93FC93AA81BB81C4
:10091C001296ED91FD913196FE93EE933197AC8149
:10092C00A083AA81BB810E94CC06FF232AF0ED9103
:10093C00FD913196FE93EE9306C0AA81BB81EFEF39
:10094C00FFEFED93FC931981088125960895269766
:10095C000E94E00610E0AC85BD85E0E0F0E0ED9390
:10096C00FC93EA89FB893196EA8BFB8B3197E491F6
:10097C002E2FE03011F40C94DA05E12FE03039F42D
:10098C00253211F411E002C00E947F060CC1E13047
:10099C00A9F4253219F40E947F0604C112E040E04C
:1009AC0000E02D3211F401E0FEC02B3211F44BE2C9
:1009BC00FAC0203211F440E2F6C002C0E23039F441
:1009CC0050E013E0203311F40068EDC004C0E330B4
:1009DC0011F00C94D905203310F02A3308F007C01D
:1009EC00AAE05A9F502DE22FE0535E0FDCC0E22F9D
:1009FC00E33649F40E948806E889F989A481AA9310
:100A0C000E948E06CFC0E33741F40E9488060E94F4
:100A1C0096060E9418061E2F0AC0E03761F40E9449
:100A2C0088060E9496060E9422061E2F086002600D
:100A3C000F7730E035C0E43611F0E93611F404607C
:100A4C0002C0E53731F4E4E5F1E0EE83FF8315E015
:100A5C000DC0E83511F4086004C0E83711F00C94AF
:100A6C00D805EEE5F1E0EE83FF8314E002FF14C03D
:100A7C000E9488060E94A006AB85AA233AF4EA8558
:100A8C00FB850E94BF06EA87FB874DE2403011F0E0
:100A9C001F5F01C00B7F04C00E9488060E94A00645
:100AAC0000FD11C0151778F407FF08C002FF04C041
:100ABC000B7F242F115001C020E301C020E20E94C3
:100ACC007F065150EFCF312F01FF17C03030A1F00E
:100ADC0003FF06C0EE81FF812591EE83FF8305C0E5
:100AEC00AE81BF812D91AE83BF830E947F065030B3
:100AFC0009F051503150EACF4BC020E3EE81FF8119
:100B0C000E94D006E887F987EE81FF813296EE834A
:100B1C00FF83E885F985AA85BB85AE17BF0750F022
:100B2C002F5FA885B985EA85FB85EA1BFB0BEA8755
:100B3C00FB87EFCF2A3328F003FF02C0295F01C0E7
:100B4C00295D04FD1AC0213320F4A885B9851197BD
:100B5C0009F409C0531710F000FF01C013C020E2C4
:100B6C0007FF0BC020E3006102FF07C00B7F4A9315
:100B7C000E948E06503009F051500E947F06503072
:100B8C0009F051503150A885B985129708F0B5CFAE
:100B9C0000FF08C0503031F05150E0E2EA930E945F
:100BAC008E06F8CF10E0DDCEAC85BD850E94CC065C
:100BBC000E94E70664960895FF92F82E26970E94ED
:100BCC00E2060E94A806309719F4EFEFFFEF25C05C
:100BDC00DE0116960E94BB068D010E94A806EE83CC
:100BEC00FF83E0E0E887E987DE011A960E94BB06E6
:100BFC000E94CC06FA93EA931A930A93EFE6F4E078
:100C0C00FA93EA93FE013A96FA93EA93A0DE9F01D7
:100C1C00AE81BF81E0E0EC93F9010E94E9062A96CF
:100C2C00FF900895A991B991EE27FF276D91662346
:100C3C0011F03196FBCF0895AA27BB27E991F991C2
:100C4C000590002011F01196FBCFFD010895E0E016
:100C5C00EA93EA930C942104EEE6F1E0FA93EA931A
:100C6C000C9415040E94AC02EEE1EA930E943C0342
:100C7C000C946703FA93EA930C941504EA930E947C
:100C8C003C030E946703EA870895E12FF0E0E05AE5
:100C9C00FE4FE0810895FA93EA930C94AF06FE019F
:100CAC00FA93EA930895FA93EA93E02FFF276627C5
:100CBC0077270E94D4060895FF27662777270E947E
:100CCC00D4060895E12FF0E0E05AFE4F0895EA8132
:100CDC00F0E0F595E795EA8384E18A95F1F70895BC
:100CEC001A930E94E003E981FA813196E983FA8331
:100CFC0008952A93ED85FE85FA93EA93E989FA899A
:100D0C0009950895E889F9893497E88BF98B08954A
:100D1C00ED85FE85FA93EA93E989FA890995089598
:100D2C00A889B98914960E94CC06EE83FF83FA93A6
:100D3C00EA930895A889B98914960E94CC06EA878B
:100D4C00FB870895DE011C960E94BB060E94CC0610
:100D5C000895E991F991309639F088EE93E0019776
:100D6C00F1F7A8953197C9F708950024AF0DB01D80
:100D7C000895F195E195F0400895F595E795F59571
:100D8C00E795F595E795F595E7950895ED91FC9127
:100D9C00119708950590F491E02D08957A936A9334
:100DAC00FA93EA9308951B2EBF2FF12D1A2EAE2F16
:100DBC00E12D08955A934A933A932A931A930A93DE
:100DCC0008955D814C813B812A81198108810895A8
:00000001FF
